:03011E00010800D5
:1000DA0053877F759850538EBF538EFE53890F43B3
:0D00EA008920758BFD758DFDC2ABD28E2275
:080116003098FDC298AF992258
:10008F00C2A6C2A7C290C291C2A5C292D2A4EF24A7
:10009F00BE601624F6601924FA601C146020240D2B
:1000AF007028D2A6C2A7D2A522C2A6D2A7D2A522B5
:1000BF00D290C291D29222C290D291D29222C2A653
:0B00CF00C2A7C290C291C2A5C292223B
:0B010B001200DA12011612008F80F8BB
:1000F700538EF75389F0438910758AA4758CFFC214
:040107008DD28C22E7
:03000000020003F8
:0C000300787FE4F6D8FD75810802004A01
:10000F0002010BE493A3F8E493A34003F68001F2FB
:10001F0008DFF48029E493A3F85407240CC8C333F2
:10002F00C4540F4420C8834004F456800146F6DFC1
:10003F00E4800B010204081020408090011EE47E32
:10004F00019360BCA3FF543F30E509541FFEE493B6
:10005F00A360010ECF54C025E060A840B8E493A37D
:10006F00FAE493A3F8E493A3C8C582C8CAC583CAA8
:10007F00F0A3C8C582C8CAC583CADFE9DEE780BE60
:0101210000DD
:00000001FF
