:0C000600C101C102C103C104C105C10059
:10015C001201B5D288D28AD2A8D2AAD2AF20A010CE
:10016C0020010D7F461201D2D201D205C2008012AD
:10017C0030A00F30010CC2012002077F531201D2B4
:10018C00C20520A11020020D7F421201D2D202C260
:10019C0005D20080C830A1C53002C2C2022001BD08
:0901AC007F531201D2C20080B49D
:030003000200A256
:1000A200C0E0C0F0C083C082C0D075D000C000C024
:1000B20001C002C003C004C005C006C00720B20AC6
:1000C2002003077F4C1201D2D20330B2FDC20330AB
:1000D20005047F4680093000047F4280027F53126C
:1000E20001D2D007D006D005D004D003D002D0016F
:0D00F200D000D0D0D082D083D0F0D0E0324A
:030013000200FFE9
:1000FF00C0E0C0F0C083C082C0D075D000C000C0C7
:10010F0001C002C003C004C005C006C00720B30A67
:10011F002004077F521201D2D20430B3FDC2043043
:10012F0005047F4680093000047F4280027F53120E
:10013F0001D2D007D006D005D004D003D002D00111
:0D014F00D000D0D0D082D083D0F0D0E032EC
:1001B50053877F759850538EBF538EFE53890F43D7
:0D01C5008920758BFD758DFDC2ABD28E2299
:0801D2008F993099FDC29922BA
:03000000020016E5
:0C001600787FE4F6D8FD75812002005DC3
:1000220002015CE493A3F8E493A34003F68001F297
:1000320008DFF48029E493A3F85407240CC8C333DF
:10004200C4540F4420C8834004F456800146F6DFAE
:10005200E4800B0102040810204080900006E47E38
:10006200019360BCA3FF543F30E509541FFEE493A3
:10007200A360010ECF54C025E060A840B8E493A36A
:10008200FAE493A3F8E493A3C8C582C8CAC583CA95
:10009200F0A3C8C582C8CAC583CADFE9DEE780BE4D
:0100120000ED
:00000001FF
